:1000000002308A00DD2A0000FF00030E8301A100F8
:100010000A08A0008A010408A2007708A300780853
:10002000A4007908A5007A08A600831383128C30F7
:100030008400801E1D288C1A2E2822088400230884
:10004000F7002408F8002508F9002608FA0020081F
:100050008A00210E8300FF0E7F0E09008A110A120A
:1000600031280130AD008C1E33281A08AE008C12E6
:100070008A110A121D280D300C1E3C2899000A30E6
:100080000C1E4028990008008316D7015708550711
:100090008400831356188317800803195E285708B5
:1000A000550784008313561883170008D80083125D
:1000B0000C1E582899008316D70A46288312080078
:1000C00010308316D900F701FA01D60CD50C031CA9
:1000D0006F285708F7070318FA0A5808FA07FA0CA6
:1000E000F70CF90CF80CD90B65288312080083165D
:1000F000DF010408DE005F10831B5F14D81F88280F
:10010000DE175E1EDE0AD709D809D70A0319D80AF6
:10011000580EF038DA00DA07E23EDB00323EDD004E
:1001200058080F39DB07DB07DD07E93EDC00DC0799
:10013000DC07570E0F39DC07DD07DC0DDD0DDD09AF
:10014000DD0D57080F39DD07DA0D0730D9000A3009
:10015000DD07DC03031CA828DC07DB03031CAC2839
:10016000DB07DA03031CB028DA07D903031CB42821
:10017000D9308400831307305E055E1384035E0567
:10018000031DC9285E1A840A5E1AC9282030F700A8
:10019000E6288407DD30040203195E170008F70023
:1001A000031DDA285E1BDA285E1AEC28DE19DA282D
:1001B0002030E528DE1FE2282D30F70084035E138F
:1001C000DE13E628DE155E123030F707770883125B
:1001D0000C1EE82899008316840A5E1FCA28831221
:1001E000080083165608F80155020318FA28550826
:1001F000F7000629F7010830D700D50DF70D56088E
:1002000077020318F700F80DD70BFD2883128A1127
:100210000A12C52C8E30F70083165608F8005508D0
:10022000F900FA01F808031D1F297908F800F901FF
:100230000830F702F808031D1F29F70127290310CA
:10024000F81B2629F90DF80DF7031F29F81383125F
:100250008A110A12CB2CF701F801F901FA01831671
:10026000EA01EB01EC01ED0169086804670466042A
:1002700003196A292030EE000310E20DE30DE40DAE
:10028000E50DEA0DEB0DEC0DED0D69086D02031D9A
:10029000532968086C02031D532967086B02031D6C
:1002A000532966086A02031C64296608EA02670883
:1002B000031C670FEB026808031C680FEC02690857
:1002C000031C690FED020314F70DF80DF90DFA0D7B
:1002D000EE0B3C29EA3084008313831208000408E3
:1002E0008316DA005908DC000319022A5808E500D1
:1002F0005708E4005608E3005508E200E901E80168
:100300002030E7008230E60062080319F429EA0091
:1003100066080319F429EA07031895297F30EA02D1
:10032000031CF4290319F42999298130EA070318D9
:10033000F4296A08F700F801F901FA016308EE00F0
:10034000EE176408ED006508EC001830EA00EB01D8
:100350006C1CC2296908FA07031CB429F90A031D99
:10036000B429F80A0319EB176808F907031CBB291D
:10037000F80A0319EB176708E400E4176408F807A4
:100380000318EB17EB0DF80CF90CFA0CEE0CED0C56
:10039000EC0C0310EA0BA7290130F7070318F42926
:1003A000F81BD929EE0DFA0DF90DF80DF703031915
:1003B000F429EE1FEA29FA0A031DEA29F90A031DA6
:1003C000EA29F80A031DEA29F80CF90CFA0CF70AD5
:1003D0000319F4296308EB006708EB06EB1FF22909
:1003E000F817F829F813F829F701F801F901FA01CB
:1003F0007A08D8007908D7007808D6007708D500A1
:10040000DC0B76295808E5005708E4005608E3009D
:100410005508E2006208B63CE200FA016308E60013
:10042000E3170310E30CE40CE50CFA0CF90CF80CE0
:10043000F70CE20B112AE61F282AF709F809F90937
:10044000FA09F70A0319F80A0319F90A0319FA0A4B
:100450007A08D8007908D7007808D6007708D50040
:10046000D81F3F2ADA03DA16D509D609D709D809E1
:10047000D50A0319D60A0319D70A0319D80A3B303B
:10048000E1009A30E000CA30DF00DE010A30DC0013
:1004900059080319DA0A5808E5005708E400560815
:1004A000E3005508E2006108E9006008E8005F0821
:1004B000E7005E08E60083122B2100088316D500B2
:1004C000840A0008D600840A0008D700840A0008BD
:1004D000D800FD308407F708031D812A590A5C0201
:1004E0000319812A5A080319832A0F395C02031958
:1004F0007B2A0318BF2ADA1BBF2A5A1B832A203003
:10050000B82A2030DA05DA1E942ADA125908031DB7
:10051000DA037708DA002D3083120C1E8D2A990039
:1005200083165A08F700DA0159085C02031DA52A50
:100530007708DA002E3083120C1E9C2A990083164D
:100540005A08F7002030DA0500303030DA1EB82AB9
:10055000DA125908031DDA037708DA002D30831206
:100560000C1EB02A990083165A08F700DA013030C1
:10057000F707770883120C1EBB2A990083166108BF
:10058000E5006008E4005F08E3005E08E200E901BE
:10059000E801E7010A30E60083122B217A0883166E
:1005A000E1007908E0007808DF007708DE00DC0B66
:1005B0004B2A83128A110A12E92C840183131F30FB
:1005C0008305813083169900A630980090308312FD
:1005D0009800AD01AE0183161F149F141F159F11C3
:1005E00007309C008312A701A801FF30AF00203024
:1005F000BD004330BE004130BF004C30C00043302E
:10060000C1005530C2004C30C3004130C4005430EA
:10061000C5004F30C6005230C7002030C8005030EF
:10062000C9005230CA004F30CB004730CC005230A6
:10063000CD004130CE004D30CF00D0012030D10070
:100640004530D2006E30D3007430D4006530D50010
:100650007230D6002030D7004630D8006930D9003B
:100660007230DA007330DB007430DC002030DD00E3
:100670004E30DE007530DF006D30E0006230E100AA
:100680006530E2007230E3003A30E4002030E500EB
:10069000E6018316A0004530A1006E30A200743040
:1006A000A3006530A4007230A5002030A6005330AE
:1006B000A7006530A8006330A9006F30AA006E3033
:1006C000AB006430AC002030AD004E30AE00753071
:1006D000AF006D30B0006230B1006530B2007230F2
:1006E000B3003A30B4002030B500B601B700453051
:1006F000B8006E30B9007430BA006530BB0072309B
:10070000BC002030BD004F30BE007030BF006530EF
:10071000C0007230C1006130C2007430C300693063
:10072000C4006F30C5006E30C6003A30C7002030BC
:10073000C800C9018312E7005230E8006530E900C3
:100740007330EA007530EB006C30EC007430ED0073
:100750002030EE003D30EF002030F000F10180301D
:10076000831687008312AF0083168C16C030831265
:100770008B04813083169900A63098008312B4014F
:10078000B801B701BA01B9013B203B208316D6015D
:100790003D30D500831244203B203B208316D601F8
:1007A0005130D500831244202D0BFE2B2E08B400AF
:1007B00034080D3C031DDE2BAD01FF2B34080C1E4D
:1007C000DF2B990030303402BB00BC018316D60108
:1007D0000A30D500831238088316D80083123708F0
:1007E0008316D700831260203B087807B70079088A
:1007F000B8003C0803183C0FB807AD01D42B3B20D0
:100800008316D601A030D500831244202D0B302C46
:100810002E08B40034080D3C031D102CAD01312C02
:1008200034080C1E112C990030303402BB00BC017E
:100830008316D6010A30D50083123A088316D800F1
:10084000831239088316D700831260203B0878078B
:10085000B9007908BA003C0803183C0FBA07AD018B
:10086000062C3B208316D601B730D50083124420D6
:100870002D0B4A2C2E08B40034080D3C031D422CCD
:10088000AD014B2C34080C1E432C9900BC013408DC
:10089000BB00AD01382C3B208316D6016730D50054
:1008A000831244203B08F7003C08FA007A08031D35
:1008B0005D2C2B3077020319732C7A08031D642CEE
:1008C0002D3077020319862C7A08031D6B2C2A30F1
:1008D00077020319992C7A08031D722C2F307702A6
:1008E0000319B82CE92C39083707F2003808F3004F
:1008F0003A0803183A0FF307103084007308831680
:10090000D8007208D70083127720E92C3908370203
:10091000F2003808F3003A08031C3A0FF3021030D3
:10092000840073088316D8007208D70083127720DA
:10093000E92C38088316D600831237088316D500B1
:1009400083123A088316D800831239088316D70019
:10095000831260207908F3007808F20010308400D8
:1009600079088316D8007808D70083127720E92CFD
:100970003708B5003908B60035088316D50083124C
:1009800036088316D6008312F12878088316D6011C
:10099000D50083120A297A08B3007908B2007808D2
:1009A000B1007708B0008930840033088316D8007E
:1009B000831232088316D700831231088316D600BB
:1009C000831230088316D5000230D90083126F29B4
:0609D000E92CBF2B6300BF
:02400E00733FFE
:00000001FF
;PIC16F877A
;CRC=4B62  CREATED="06-Dec-19 14:30"
